{
	"data": {
		"bytecode": {
			"linkReferences": {},
			"object": "6080604052600160005534801561001557600080fd5b50610cde806100256000396000f3fe60806040523480156200001157600080fd5b50600436106200002e5760003560e01c80632b0969261462000033575b600080fd5b6200005160048036038101906200004b9190620002c3565b62000053565b005b60005b81811015620000dd5760006200006f30600054620000e1565b9050803360405162000081906200029e565b6200008e929190620005f8565b604051809103906000f080158015620000ab573d6000803e3d6000fd5b50506001600080828254620000c1919062000625565b925050819055505080620000d59062000726565b905062000056565b5050565b6000606060008314156200012b5760d660f81b609460f81b85608060f81b604051602001620001149493929190620003a8565b604051602081830303815290604052905062000281565b607f83116200016c5760d660f81b609460f81b8585604051602001620001559493929190620005a2565b604051602081830303815290604052905062000280565b60ff8311620001b35760d760f81b609460f81b85608160f81b866040516020016200019c95949392919062000539565b60405160208183030381529060405290506200027f565b61ffff8311620001fb5760d860f81b609460f81b85608260f81b86604051602001620001e4959493929190620003fe565b60405160208183030381529060405290506200027e565b62ffffff8311620002445760d960f81b609460f81b85608360f81b866040516020016200022d95949392919062000467565b60405160208183030381529060405290506200027d565b60da60f81b609460f81b85608460f81b866040516020016200026b959493929190620004d0565b60405160208183030381529060405290505b5b5b5b5b600081805190602001209050806000526000519250505092915050565b610423806200088683390190565b600081359050620002bd816200086b565b92915050565b600060208284031215620002dc57620002db62000825565b5b6000620002ec84828501620002ac565b91505092915050565b620003008162000682565b82525050565b6200031b620003158262000682565b62000774565b82525050565b62000336620003308262000696565b62000788565b82525050565b620003516200034b82620006c2565b62000792565b82525050565b6200036c6200036682620006f0565b620007ba565b82525050565b62000387620003818262000709565b620007ce565b82525050565b620003a26200039c8262000719565b620007e2565b82525050565b6000620003b6828762000321565b600182019150620003c8828662000321565b600182019150620003da828562000306565b601482019150620003ec828462000321565b60018201915081905095945050505050565b60006200040c828862000321565b6001820191506200041e828762000321565b60018201915062000430828662000306565b60148201915062000442828562000321565b6001820191506200045482846200033c565b6002820191508190509695505050505050565b600062000475828862000321565b60018201915062000487828762000321565b60018201915062000499828662000306565b601482019150620004ab828562000321565b600182019150620004bd828462000357565b6003820191508190509695505050505050565b6000620004de828862000321565b600182019150620004f0828762000321565b60018201915062000502828662000306565b60148201915062000514828562000321565b60018201915062000526828462000372565b6004820191508190509695505050505050565b600062000547828862000321565b60018201915062000559828762000321565b6001820191506200056b828662000306565b6014820191506200057d828562000321565b6001820191506200058f82846200038d565b6001820191508190509695505050505050565b6000620005b0828762000321565b600182019150620005c2828662000321565b600182019150620005d4828562000306565b601482019150620005e682846200038d565b60018201915081905095945050505050565b60006040820190506200060f6000830185620002f5565b6200061e6020830184620002f5565b9392505050565b60006200063282620006ff565b91506200063f83620006ff565b9250827fffffffffffffffffffffffffffffffffffffffffffffffffffffffffffffffff03821115620006775762000676620007f6565b5b828201905092915050565b60006200068f82620006d0565b9050919050565b60007fff0000000000000000000000000000000000000000000000000000000000000082169050919050565b600061ffff82169050919050565b600073ffffffffffffffffffffffffffffffffffffffff82169050919050565b600062ffffff82169050919050565b6000819050919050565b600063ffffffff82169050919050565b600060ff82169050919050565b60006200073382620006ff565b91507fffffffffffffffffffffffffffffffffffffffffffffffffffffffffffffffff821415620007695762000768620007f6565b5b600182019050919050565b60006200078182620007a6565b9050919050565b6000819050919050565b60006200079f8262000844565b9050919050565b6000620007b3826200085e565b9050919050565b6000620007c78262000837565b9050919050565b6000620007db826200082a565b9050919050565b6000620007ef8262000851565b9050919050565b7f4e487b7100000000000000000000000000000000000000000000000000000000600052601160045260246000fd5b600080fd5b60008160e01b9050919050565b60008160e81b9050919050565b60008160f01b9050919050565b60008160f81b9050919050565b60008160601b9050919050565b6200087681620006ff565b81146200088257600080fd5b5056fe608060405234801561001057600080fd5b506040516104233803806104238339818101604052810190610032919061021b565b600073bb2a2d70d6a4b80fa2c4d4ca43a8525da430196c90508073ffffffffffffffffffffffffffffffffffffffff16634e71d92d6040518163ffffffff1660e01b8152600401600060405180830381600087803b15801561009357600080fd5b505af11580156100a7573d6000803e3d6000fd5b5050505060008173ffffffffffffffffffffffffffffffffffffffff166370a08231856040518263ffffffff1660e01b81526004016100e691906102c9565b60206040518083038186803b1580156100fe57600080fd5b505afa158015610112573d6000803e3d6000fd5b505050506040513d601f19601f82011682018060405250810190610136919061025b565b90506000811161017b576040517f08c379a00000000000000000000000000000000000000000000000000000000081526004016101729061030d565b60405180910390fd5b8173ffffffffffffffffffffffffffffffffffffffff1663a9059cbb84836040518363ffffffff1660e01b81526004016101b69291906102e4565b600060405180830381600087803b1580156101d057600080fd5b505af11580156101e4573d6000803e3d6000fd5b50505050505050506103d6565b600081519050610200816103a8565b92915050565b600081519050610215816103bf565b92915050565b600080604083850312156102325761023161037a565b5b6000610240858286016101f1565b9250506020610251858286016101f1565b9150509250929050565b6000602082840312156102715761027061037a565b5b600061027f84828501610206565b91505092915050565b6102918161033e565b82525050565b60006102a460058361032d565b91506102af8261037f565b602082019050919050565b6102c381610370565b82525050565b60006020820190506102de6000830184610288565b92915050565b60006040820190506102f96000830185610288565b61030660208301846102ba565b9392505050565b6000602082019050818103600083015261032681610297565b9050919050565b600082825260208201905092915050565b600061034982610350565b9050919050565b600073ffffffffffffffffffffffffffffffffffffffff82169050919050565b6000819050919050565b600080fd5b7f4f68206e6f000000000000000000000000000000000000000000000000000000600082015250565b6103b18161033e565b81146103bc57600080fd5b50565b6103c881610370565b81146103d357600080fd5b50565b603f806103e46000396000f3fe6080604052600080fdfea26469706673582212202ff906916b2d17c15d00fcebb48f75cca4a334361b34a45e0c20bead0707125764736f6c63430008070033a26469706673582212206390892abe71f8a4e74b318647731bb84a5f3a37d23a2c229d9e64ccbca7bea064736f6c63430008070033",
			"opcodes": "PUSH1 0x80 PUSH1 0x40 MSTORE PUSH1 0x1 PUSH1 0x0 SSTORE CALLVALUE DUP1 ISZERO PUSH2 0x15 JUMPI PUSH1 0x0 DUP1 REVERT JUMPDEST POP PUSH2 0xCDE DUP1 PUSH2 0x25 PUSH1 0x0 CODECOPY PUSH1 0x0 RETURN INVALID PUSH1 0x80 PUSH1 0x40 MSTORE CALLVALUE DUP1 ISZERO PUSH3 0x11 JUMPI PUSH1 0x0 DUP1 REVERT JUMPDEST POP PUSH1 0x4 CALLDATASIZE LT PUSH3 0x2E JUMPI PUSH1 0x0 CALLDATALOAD PUSH1 0xE0 SHR DUP1 PUSH4 0x2B096926 EQ PUSH3 0x33 JUMPI JUMPDEST PUSH1 0x0 DUP1 REVERT JUMPDEST PUSH3 0x51 PUSH1 0x4 DUP1 CALLDATASIZE SUB DUP2 ADD SWAP1 PUSH3 0x4B SWAP2 SWAP1 PUSH3 0x2C3 JUMP JUMPDEST PUSH3 0x53 JUMP JUMPDEST STOP JUMPDEST PUSH1 0x0 JUMPDEST DUP2 DUP2 LT ISZERO PUSH3 0xDD JUMPI PUSH1 0x0 PUSH3 0x6F ADDRESS PUSH1 0x0 SLOAD PUSH3 0xE1 JUMP JUMPDEST SWAP1 POP DUP1 CALLER PUSH1 0x40 MLOAD PUSH3 0x81 SWAP1 PUSH3 0x29E JUMP JUMPDEST PUSH3 0x8E SWAP3 SWAP2 SWAP1 PUSH3 0x5F8 JUMP JUMPDEST PUSH1 0x40 MLOAD DUP1 SWAP2 SUB SWAP1 PUSH1 0x0 CREATE DUP1 ISZERO DUP1 ISZERO PUSH3 0xAB JUMPI RETURNDATASIZE PUSH1 0x0 DUP1 RETURNDATACOPY RETURNDATASIZE PUSH1 0x0 REVERT JUMPDEST POP POP PUSH1 0x1 PUSH1 0x0 DUP1 DUP3 DUP3 SLOAD PUSH3 0xC1 SWAP2 SWAP1 PUSH3 0x625 JUMP JUMPDEST SWAP3 POP POP DUP2 SWAP1 SSTORE POP POP DUP1 PUSH3 0xD5 SWAP1 PUSH3 0x726 JUMP JUMPDEST SWAP1 POP PUSH3 0x56 JUMP JUMPDEST POP POP JUMP JUMPDEST PUSH1 0x0 PUSH1 0x60 PUSH1 0x0 DUP4 EQ ISZERO PUSH3 0x12B JUMPI PUSH1 0xD6 PUSH1 0xF8 SHL PUSH1 0x94 PUSH1 0xF8 SHL DUP6 PUSH1 0x80 PUSH1 0xF8 SHL PUSH1 0x40 MLOAD PUSH1 0x20 ADD PUSH3 0x114 SWAP5 SWAP4 SWAP3 SWAP2 SWAP1 PUSH3 0x3A8 JUMP JUMPDEST PUSH1 0x40 MLOAD PUSH1 0x20 DUP2 DUP4 SUB SUB DUP2 MSTORE SWAP1 PUSH1 0x40 MSTORE SWAP1 POP PUSH3 0x281 JUMP JUMPDEST PUSH1 0x7F DUP4 GT PUSH3 0x16C JUMPI PUSH1 0xD6 PUSH1 0xF8 SHL PUSH1 0x94 PUSH1 0xF8 SHL DUP6 DUP6 PUSH1 0x40 MLOAD PUSH1 0x20 ADD PUSH3 0x155 SWAP5 SWAP4 SWAP3 SWAP2 SWAP1 PUSH3 0x5A2 JUMP JUMPDEST PUSH1 0x40 MLOAD PUSH1 0x20 DUP2 DUP4 SUB SUB DUP2 MSTORE SWAP1 PUSH1 0x40 MSTORE SWAP1 POP PUSH3 0x280 JUMP JUMPDEST PUSH1 0xFF DUP4 GT PUSH3 0x1B3 JUMPI PUSH1 0xD7 PUSH1 0xF8 SHL PUSH1 0x94 PUSH1 0xF8 SHL DUP6 PUSH1 0x81 PUSH1 0xF8 SHL DUP7 PUSH1 0x40 MLOAD PUSH1 0x20 ADD PUSH3 0x19C SWAP6 SWAP5 SWAP4 SWAP3 SWAP2 SWAP1 PUSH3 0x539 JUMP JUMPDEST PUSH1 0x40 MLOAD PUSH1 0x20 DUP2 DUP4 SUB SUB DUP2 MSTORE SWAP1 PUSH1 0x40 MSTORE SWAP1 POP PUSH3 0x27F JUMP JUMPDEST PUSH2 0xFFFF DUP4 GT PUSH3 0x1FB JUMPI PUSH1 0xD8 PUSH1 0xF8 SHL PUSH1 0x94 PUSH1 0xF8 SHL DUP6 PUSH1 0x82 PUSH1 0xF8 SHL DUP7 PUSH1 0x40 MLOAD PUSH1 0x20 ADD PUSH3 0x1E4 SWAP6 SWAP5 SWAP4 SWAP3 SWAP2 SWAP1 PUSH3 0x3FE JUMP JUMPDEST PUSH1 0x40 MLOAD PUSH1 0x20 DUP2 DUP4 SUB SUB DUP2 MSTORE SWAP1 PUSH1 0x40 MSTORE SWAP1 POP PUSH3 0x27E JUMP JUMPDEST PUSH3 0xFFFFFF DUP4 GT PUSH3 0x244 JUMPI PUSH1 0xD9 PUSH1 0xF8 SHL PUSH1 0x94 PUSH1 0xF8 SHL DUP6 PUSH1 0x83 PUSH1 0xF8 SHL DUP7 PUSH1 0x40 MLOAD PUSH1 0x20 ADD PUSH3 0x22D SWAP6 SWAP5 SWAP4 SWAP3 SWAP2 SWAP1 PUSH3 0x467 JUMP JUMPDEST PUSH1 0x40 MLOAD PUSH1 0x20 DUP2 DUP4 SUB SUB DUP2 MSTORE SWAP1 PUSH1 0x40 MSTORE SWAP1 POP PUSH3 0x27D JUMP JUMPDEST PUSH1 0xDA PUSH1 0xF8 SHL PUSH1 0x94 PUSH1 0xF8 SHL DUP6 PUSH1 0x84 PUSH1 0xF8 SHL DUP7 PUSH1 0x40 MLOAD PUSH1 0x20 ADD PUSH3 0x26B SWAP6 SWAP5 SWAP4 SWAP3 SWAP2 SWAP1 PUSH3 0x4D0 JUMP JUMPDEST PUSH1 0x40 MLOAD PUSH1 0x20 DUP2 DUP4 SUB SUB DUP2 MSTORE SWAP1 PUSH1 0x40 MSTORE SWAP1 POP JUMPDEST JUMPDEST JUMPDEST JUMPDEST JUMPDEST PUSH1 0x0 DUP2 DUP1 MLOAD SWAP1 PUSH1 0x20 ADD KECCAK256 SWAP1 POP DUP1 PUSH1 0x0 MSTORE PUSH1 0x0 MLOAD SWAP3 POP POP POP SWAP3 SWAP2 POP POP JUMP JUMPDEST PUSH2 0x423 DUP1 PUSH3 0x886 DUP4 CODECOPY ADD SWAP1 JUMP JUMPDEST PUSH1 0x0 DUP2 CALLDATALOAD SWAP1 POP PUSH3 0x2BD DUP2 PUSH3 0x86B JUMP JUMPDEST SWAP3 SWAP2 POP POP JUMP JUMPDEST PUSH1 0x0 PUSH1 0x20 DUP3 DUP5 SUB SLT ISZERO PUSH3 0x2DC JUMPI PUSH3 0x2DB PUSH3 0x825 JUMP JUMPDEST JUMPDEST PUSH1 0x0 PUSH3 0x2EC DUP5 DUP3 DUP6 ADD PUSH3 0x2AC JUMP JUMPDEST SWAP2 POP POP SWAP3 SWAP2 POP POP JUMP JUMPDEST PUSH3 0x300 DUP2 PUSH3 0x682 JUMP JUMPDEST DUP3 MSTORE POP POP JUMP JUMPDEST PUSH3 0x31B PUSH3 0x315 DUP3 PUSH3 0x682 JUMP JUMPDEST PUSH3 0x774 JUMP JUMPDEST DUP3 MSTORE POP POP JUMP JUMPDEST PUSH3 0x336 PUSH3 0x330 DUP3 PUSH3 0x696 JUMP JUMPDEST PUSH3 0x788 JUMP JUMPDEST DUP3 MSTORE POP POP JUMP JUMPDEST PUSH3 0x351 PUSH3 0x34B DUP3 PUSH3 0x6C2 JUMP JUMPDEST PUSH3 0x792 JUMP JUMPDEST DUP3 MSTORE POP POP JUMP JUMPDEST PUSH3 0x36C PUSH3 0x366 DUP3 PUSH3 0x6F0 JUMP JUMPDEST PUSH3 0x7BA JUMP JUMPDEST DUP3 MSTORE POP POP JUMP JUMPDEST PUSH3 0x387 PUSH3 0x381 DUP3 PUSH3 0x709 JUMP JUMPDEST PUSH3 0x7CE JUMP JUMPDEST DUP3 MSTORE POP POP JUMP JUMPDEST PUSH3 0x3A2 PUSH3 0x39C DUP3 PUSH3 0x719 JUMP JUMPDEST PUSH3 0x7E2 JUMP JUMPDEST DUP3 MSTORE POP POP JUMP JUMPDEST PUSH1 0x0 PUSH3 0x3B6 DUP3 DUP8 PUSH3 0x321 JUMP JUMPDEST PUSH1 0x1 DUP3 ADD SWAP2 POP PUSH3 0x3C8 DUP3 DUP7 PUSH3 0x321 JUMP JUMPDEST PUSH1 0x1 DUP3 ADD SWAP2 POP PUSH3 0x3DA DUP3 DUP6 PUSH3 0x306 JUMP JUMPDEST PUSH1 0x14 DUP3 ADD SWAP2 POP PUSH3 0x3EC DUP3 DUP5 PUSH3 0x321 JUMP JUMPDEST PUSH1 0x1 DUP3 ADD SWAP2 POP DUP2 SWAP1 POP SWAP6 SWAP5 POP POP POP POP POP JUMP JUMPDEST PUSH1 0x0 PUSH3 0x40C DUP3 DUP9 PUSH3 0x321 JUMP JUMPDEST PUSH1 0x1 DUP3 ADD SWAP2 POP PUSH3 0x41E DUP3 DUP8 PUSH3 0x321 JUMP JUMPDEST PUSH1 0x1 DUP3 ADD SWAP2 POP PUSH3 0x430 DUP3 DUP7 PUSH3 0x306 JUMP JUMPDEST PUSH1 0x14 DUP3 ADD SWAP2 POP PUSH3 0x442 DUP3 DUP6 PUSH3 0x321 JUMP JUMPDEST PUSH1 0x1 DUP3 ADD SWAP2 POP PUSH3 0x454 DUP3 DUP5 PUSH3 0x33C JUMP JUMPDEST PUSH1 0x2 DUP3 ADD SWAP2 POP DUP2 SWAP1 POP SWAP7 SWAP6 POP POP POP POP POP POP JUMP JUMPDEST PUSH1 0x0 PUSH3 0x475 DUP3 DUP9 PUSH3 0x321 JUMP JUMPDEST PUSH1 0x1 DUP3 ADD SWAP2 POP PUSH3 0x487 DUP3 DUP8 PUSH3 0x321 JUMP JUMPDEST PUSH1 0x1 DUP3 ADD SWAP2 POP PUSH3 0x499 DUP3 DUP7 PUSH3 0x306 JUMP JUMPDEST PUSH1 0x14 DUP3 ADD SWAP2 POP PUSH3 0x4AB DUP3 DUP6 PUSH3 0x321 JUMP JUMPDEST PUSH1 0x1 DUP3 ADD SWAP2 POP PUSH3 0x4BD DUP3 DUP5 PUSH3 0x357 JUMP JUMPDEST PUSH1 0x3 DUP3 ADD SWAP2 POP DUP2 SWAP1 POP SWAP7 SWAP6 POP POP POP POP POP POP JUMP JUMPDEST PUSH1 0x0 PUSH3 0x4DE DUP3 DUP9 PUSH3 0x321 JUMP JUMPDEST PUSH1 0x1 DUP3 ADD SWAP2 POP PUSH3 0x4F0 DUP3 DUP8 PUSH3 0x321 JUMP JUMPDEST PUSH1 0x1 DUP3 ADD SWAP2 POP PUSH3 0x502 DUP3 DUP7 PUSH3 0x306 JUMP JUMPDEST PUSH1 0x14 DUP3 ADD SWAP2 POP PUSH3 0x514 DUP3 DUP6 PUSH3 0x321 JUMP JUMPDEST PUSH1 0x1 DUP3 ADD SWAP2 POP PUSH3 0x526 DUP3 DUP5 PUSH3 0x372 JUMP JUMPDEST PUSH1 0x4 DUP3 ADD SWAP2 POP DUP2 SWAP1 POP SWAP7 SWAP6 POP POP POP POP POP POP JUMP JUMPDEST PUSH1 0x0 PUSH3 0x547 DUP3 DUP9 PUSH3 0x321 JUMP JUMPDEST PUSH1 0x1 DUP3 ADD SWAP2 POP PUSH3 0x559 DUP3 DUP8 PUSH3 0x321 JUMP JUMPDEST PUSH1 0x1 DUP3 ADD SWAP2 POP PUSH3 0x56B DUP3 DUP7 PUSH3 0x306 JUMP JUMPDEST PUSH1 0x14 DUP3 ADD SWAP2 POP PUSH3 0x57D DUP3 DUP6 PUSH3 0x321 JUMP JUMPDEST PUSH1 0x1 DUP3 ADD SWAP2 POP PUSH3 0x58F DUP3 DUP5 PUSH3 0x38D JUMP JUMPDEST PUSH1 0x1 DUP3 ADD SWAP2 POP DUP2 SWAP1 POP SWAP7 SWAP6 POP POP POP POP POP POP JUMP JUMPDEST PUSH1 0x0 PUSH3 0x5B0 DUP3 DUP8 PUSH3 0x321 JUMP JUMPDEST PUSH1 0x1 DUP3 ADD SWAP2 POP PUSH3 0x5C2 DUP3 DUP7 PUSH3 0x321 JUMP JUMPDEST PUSH1 0x1 DUP3 ADD SWAP2 POP PUSH3 0x5D4 DUP3 DUP6 PUSH3 0x306 JUMP JUMPDEST PUSH1 0x14 DUP3 ADD SWAP2 POP PUSH3 0x5E6 DUP3 DUP5 PUSH3 0x38D JUMP JUMPDEST PUSH1 0x1 DUP3 ADD SWAP2 POP DUP2 SWAP1 POP SWAP6 SWAP5 POP POP POP POP POP JUMP JUMPDEST PUSH1 0x0 PUSH1 0x40 DUP3 ADD SWAP1 POP PUSH3 0x60F PUSH1 0x0 DUP4 ADD DUP6 PUSH3 0x2F5 JUMP JUMPDEST PUSH3 0x61E PUSH1 0x20 DUP4 ADD DUP5 PUSH3 0x2F5 JUMP JUMPDEST SWAP4 SWAP3 POP POP POP JUMP JUMPDEST PUSH1 0x0 PUSH3 0x632 DUP3 PUSH3 0x6FF JUMP JUMPDEST SWAP2 POP PUSH3 0x63F DUP4 PUSH3 0x6FF JUMP JUMPDEST SWAP3 POP DUP3 PUSH32 0xFFFFFFFFFFFFFFFFFFFFFFFFFFFFFFFFFFFFFFFFFFFFFFFFFFFFFFFFFFFFFFFF SUB DUP3 GT ISZERO PUSH3 0x677 JUMPI PUSH3 0x676 PUSH3 0x7F6 JUMP JUMPDEST JUMPDEST DUP3 DUP3 ADD SWAP1 POP SWAP3 SWAP2 POP POP JUMP JUMPDEST PUSH1 0x0 PUSH3 0x68F DUP3 PUSH3 0x6D0 JUMP JUMPDEST SWAP1 POP SWAP2 SWAP1 POP JUMP JUMPDEST PUSH1 0x0 PUSH32 0xFF00000000000000000000000000000000000000000000000000000000000000 DUP3 AND SWAP1 POP SWAP2 SWAP1 POP JUMP JUMPDEST PUSH1 0x0 PUSH2 0xFFFF DUP3 AND SWAP1 POP SWAP2 SWAP1 POP JUMP JUMPDEST PUSH1 0x0 PUSH20 0xFFFFFFFFFFFFFFFFFFFFFFFFFFFFFFFFFFFFFFFF DUP3 AND SWAP1 POP SWAP2 SWAP1 POP JUMP JUMPDEST PUSH1 0x0 PUSH3 0xFFFFFF DUP3 AND SWAP1 POP SWAP2 SWAP1 POP JUMP JUMPDEST PUSH1 0x0 DUP2 SWAP1 POP SWAP2 SWAP1 POP JUMP JUMPDEST PUSH1 0x0 PUSH4 0xFFFFFFFF DUP3 AND SWAP1 POP SWAP2 SWAP1 POP JUMP JUMPDEST PUSH1 0x0 PUSH1 0xFF DUP3 AND SWAP1 POP SWAP2 SWAP1 POP JUMP JUMPDEST PUSH1 0x0 PUSH3 0x733 DUP3 PUSH3 0x6FF JUMP JUMPDEST SWAP2 POP PUSH32 0xFFFFFFFFFFFFFFFFFFFFFFFFFFFFFFFFFFFFFFFFFFFFFFFFFFFFFFFFFFFFFFFF DUP3 EQ ISZERO PUSH3 0x769 JUMPI PUSH3 0x768 PUSH3 0x7F6 JUMP JUMPDEST JUMPDEST PUSH1 0x1 DUP3 ADD SWAP1 POP SWAP2 SWAP1 POP JUMP JUMPDEST PUSH1 0x0 PUSH3 0x781 DUP3 PUSH3 0x7A6 JUMP JUMPDEST SWAP1 POP SWAP2 SWAP1 POP JUMP JUMPDEST PUSH1 0x0 DUP2 SWAP1 POP SWAP2 SWAP1 POP JUMP JUMPDEST PUSH1 0x0 PUSH3 0x79F DUP3 PUSH3 0x844 JUMP JUMPDEST SWAP1 POP SWAP2 SWAP1 POP JUMP JUMPDEST PUSH1 0x0 PUSH3 0x7B3 DUP3 PUSH3 0x85E JUMP JUMPDEST SWAP1 POP SWAP2 SWAP1 POP JUMP JUMPDEST PUSH1 0x0 PUSH3 0x7C7 DUP3 PUSH3 0x837 JUMP JUMPDEST SWAP1 POP SWAP2 SWAP1 POP JUMP JUMPDEST PUSH1 0x0 PUSH3 0x7DB DUP3 PUSH3 0x82A JUMP JUMPDEST SWAP1 POP SWAP2 SWAP1 POP JUMP JUMPDEST PUSH1 0x0 PUSH3 0x7EF DUP3 PUSH3 0x851 JUMP JUMPDEST SWAP1 POP SWAP2 SWAP1 POP JUMP JUMPDEST PUSH32 0x4E487B7100000000000000000000000000000000000000000000000000000000 PUSH1 0x0 MSTORE PUSH1 0x11 PUSH1 0x4 MSTORE PUSH1 0x24 PUSH1 0x0 REVERT JUMPDEST PUSH1 0x0 DUP1 REVERT JUMPDEST PUSH1 0x0 DUP2 PUSH1 0xE0 SHL SWAP1 POP SWAP2 SWAP1 POP JUMP JUMPDEST PUSH1 0x0 DUP2 PUSH1 0xE8 SHL SWAP1 POP SWAP2 SWAP1 POP JUMP JUMPDEST PUSH1 0x0 DUP2 PUSH1 0xF0 SHL SWAP1 POP SWAP2 SWAP1 POP JUMP JUMPDEST PUSH1 0x0 DUP2 PUSH1 0xF8 SHL SWAP1 POP SWAP2 SWAP1 POP JUMP JUMPDEST PUSH1 0x0 DUP2 PUSH1 0x60 SHL SWAP1 POP SWAP2 SWAP1 POP JUMP JUMPDEST PUSH3 0x876 DUP2 PUSH3 0x6FF JUMP JUMPDEST DUP2 EQ PUSH3 0x882 JUMPI PUSH1 0x0 DUP1 REVERT JUMPDEST POP JUMP INVALID PUSH1 0x80 PUSH1 0x40 MSTORE CALLVALUE DUP1 ISZERO PUSH2 0x10 JUMPI PUSH1 0x0 DUP1 REVERT JUMPDEST POP PUSH1 0x40 MLOAD PUSH2 0x423 CODESIZE SUB DUP1 PUSH2 0x423 DUP4 CODECOPY DUP2 DUP2 ADD PUSH1 0x40 MSTORE DUP2 ADD SWAP1 PUSH2 0x32 SWAP2 SWAP1 PUSH2 0x21B JUMP JUMPDEST PUSH1 0x0 PUSH20 0xBB2A2D70D6A4B80FA2C4D4CA43A8525DA430196C SWAP1 POP DUP1 PUSH20 0xFFFFFFFFFFFFFFFFFFFFFFFFFFFFFFFFFFFFFFFF AND PUSH4 0x4E71D92D PUSH1 0x40 MLOAD DUP2 PUSH4 0xFFFFFFFF AND PUSH1 0xE0 SHL DUP2 MSTORE PUSH1 0x4 ADD PUSH1 0x0 PUSH1 0x40 MLOAD DUP1 DUP4 SUB DUP2 PUSH1 0x0 DUP8 DUP1 EXTCODESIZE ISZERO DUP1 ISZERO PUSH2 0x93 JUMPI PUSH1 0x0 DUP1 REVERT JUMPDEST POP GAS CALL ISZERO DUP1 ISZERO PUSH2 0xA7 JUMPI RETURNDATASIZE PUSH1 0x0 DUP1 RETURNDATACOPY RETURNDATASIZE PUSH1 0x0 REVERT JUMPDEST POP POP POP POP PUSH1 0x0 DUP2 PUSH20 0xFFFFFFFFFFFFFFFFFFFFFFFFFFFFFFFFFFFFFFFF AND PUSH4 0x70A08231 DUP6 PUSH1 0x40 MLOAD DUP3 PUSH4 0xFFFFFFFF AND PUSH1 0xE0 SHL DUP2 MSTORE PUSH1 0x4 ADD PUSH2 0xE6 SWAP2 SWAP1 PUSH2 0x2C9 JUMP JUMPDEST PUSH1 0x20 PUSH1 0x40 MLOAD DUP1 DUP4 SUB DUP2 DUP7 DUP1 EXTCODESIZE ISZERO DUP1 ISZERO PUSH2 0xFE JUMPI PUSH1 0x0 DUP1 REVERT JUMPDEST POP GAS STATICCALL ISZERO DUP1 ISZERO PUSH2 0x112 JUMPI RETURNDATASIZE PUSH1 0x0 DUP1 RETURNDATACOPY RETURNDATASIZE PUSH1 0x0 REVERT JUMPDEST POP POP POP POP PUSH1 0x40 MLOAD RETURNDATASIZE PUSH1 0x1F NOT PUSH1 0x1F DUP3 ADD AND DUP3 ADD DUP1 PUSH1 0x40 MSTORE POP DUP2 ADD SWAP1 PUSH2 0x136 SWAP2 SWAP1 PUSH2 0x25B JUMP JUMPDEST SWAP1 POP PUSH1 0x0 DUP2 GT PUSH2 0x17B JUMPI PUSH1 0x40 MLOAD PUSH32 0x8C379A000000000000000000000000000000000000000000000000000000000 DUP2 MSTORE PUSH1 0x4 ADD PUSH2 0x172 SWAP1 PUSH2 0x30D JUMP JUMPDEST PUSH1 0x40 MLOAD DUP1 SWAP2 SUB SWAP1 REVERT JUMPDEST DUP2 PUSH20 0xFFFFFFFFFFFFFFFFFFFFFFFFFFFFFFFFFFFFFFFF AND PUSH4 0xA9059CBB DUP5 DUP4 PUSH1 0x40 MLOAD DUP4 PUSH4 0xFFFFFFFF AND PUSH1 0xE0 SHL DUP2 MSTORE PUSH1 0x4 ADD PUSH2 0x1B6 SWAP3 SWAP2 SWAP1 PUSH2 0x2E4 JUMP JUMPDEST PUSH1 0x0 PUSH1 0x40 MLOAD DUP1 DUP4 SUB DUP2 PUSH1 0x0 DUP8 DUP1 EXTCODESIZE ISZERO DUP1 ISZERO PUSH2 0x1D0 JUMPI PUSH1 0x0 DUP1 REVERT JUMPDEST POP GAS CALL ISZERO DUP1 ISZERO PUSH2 0x1E4 JUMPI RETURNDATASIZE PUSH1 0x0 DUP1 RETURNDATACOPY RETURNDATASIZE PUSH1 0x0 REVERT JUMPDEST POP POP POP POP POP POP POP POP PUSH2 0x3D6 JUMP JUMPDEST PUSH1 0x0 DUP2 MLOAD SWAP1 POP PUSH2 0x200 DUP2 PUSH2 0x3A8 JUMP JUMPDEST SWAP3 SWAP2 POP POP JUMP JUMPDEST PUSH1 0x0 DUP2 MLOAD SWAP1 POP PUSH2 0x215 DUP2 PUSH2 0x3BF JUMP JUMPDEST SWAP3 SWAP2 POP POP JUMP JUMPDEST PUSH1 0x0 DUP1 PUSH1 0x40 DUP4 DUP6 SUB SLT ISZERO PUSH2 0x232 JUMPI PUSH2 0x231 PUSH2 0x37A JUMP JUMPDEST JUMPDEST PUSH1 0x0 PUSH2 0x240 DUP6 DUP3 DUP7 ADD PUSH2 0x1F1 JUMP JUMPDEST SWAP3 POP POP PUSH1 0x20 PUSH2 0x251 DUP6 DUP3 DUP7 ADD PUSH2 0x1F1 JUMP JUMPDEST SWAP2 POP POP SWAP3 POP SWAP3 SWAP1 POP JUMP JUMPDEST PUSH1 0x0 PUSH1 0x20 DUP3 DUP5 SUB SLT ISZERO PUSH2 0x271 JUMPI PUSH2 0x270 PUSH2 0x37A JUMP JUMPDEST JUMPDEST PUSH1 0x0 PUSH2 0x27F DUP5 DUP3 DUP6 ADD PUSH2 0x206 JUMP JUMPDEST SWAP2 POP POP SWAP3 SWAP2 POP POP JUMP JUMPDEST PUSH2 0x291 DUP2 PUSH2 0x33E JUMP JUMPDEST DUP3 MSTORE POP POP JUMP JUMPDEST PUSH1 0x0 PUSH2 0x2A4 PUSH1 0x5 DUP4 PUSH2 0x32D JUMP JUMPDEST SWAP2 POP PUSH2 0x2AF DUP3 PUSH2 0x37F JUMP JUMPDEST PUSH1 0x20 DUP3 ADD SWAP1 POP SWAP2 SWAP1 POP JUMP JUMPDEST PUSH2 0x2C3 DUP2 PUSH2 0x370 JUMP JUMPDEST DUP3 MSTORE POP POP JUMP JUMPDEST PUSH1 0x0 PUSH1 0x20 DUP3 ADD SWAP1 POP PUSH2 0x2DE PUSH1 0x0 DUP4 ADD DUP5 PUSH2 0x288 JUMP JUMPDEST SWAP3 SWAP2 POP POP JUMP JUMPDEST PUSH1 0x0 PUSH1 0x40 DUP3 ADD SWAP1 POP PUSH2 0x2F9 PUSH1 0x0 DUP4 ADD DUP6 PUSH2 0x288 JUMP JUMPDEST PUSH2 0x306 PUSH1 0x20 DUP4 ADD DUP5 PUSH2 0x2BA JUMP JUMPDEST SWAP4 SWAP3 POP POP POP JUMP JUMPDEST PUSH1 0x0 PUSH1 0x20 DUP3 ADD SWAP1 POP DUP2 DUP2 SUB PUSH1 0x0 DUP4 ADD MSTORE PUSH2 0x326 DUP2 PUSH2 0x297 JUMP JUMPDEST SWAP1 POP SWAP2 SWAP1 POP JUMP JUMPDEST PUSH1 0x0 DUP3 DUP3 MSTORE PUSH1 0x20 DUP3 ADD SWAP1 POP SWAP3 SWAP2 POP POP JUMP JUMPDEST PUSH1 0x0 PUSH2 0x349 DUP3 PUSH2 0x350 JUMP JUMPDEST SWAP1 POP SWAP2 SWAP1 POP JUMP JUMPDEST PUSH1 0x0 PUSH20 0xFFFFFFFFFFFFFFFFFFFFFFFFFFFFFFFFFFFFFFFF DUP3 AND SWAP1 POP SWAP2 SWAP1 POP JUMP JUMPDEST PUSH1 0x0 DUP2 SWAP1 POP SWAP2 SWAP1 POP JUMP JUMPDEST PUSH1 0x0 DUP1 REVERT JUMPDEST PUSH32 0x4F68206E6F000000000000000000000000000000000000000000000000000000 PUSH1 0x0 DUP3 ADD MSTORE POP JUMP JUMPDEST PUSH2 0x3B1 DUP2 PUSH2 0x33E JUMP JUMPDEST DUP2 EQ PUSH2 0x3BC JUMPI PUSH1 0x0 DUP1 REVERT JUMPDEST POP JUMP JUMPDEST PUSH2 0x3C8 DUP2 PUSH2 0x370 JUMP JUMPDEST DUP2 EQ PUSH2 0x3D3 JUMPI PUSH1 0x0 DUP1 REVERT JUMPDEST POP JUMP JUMPDEST PUSH1 0x3F DUP1 PUSH2 0x3E4 PUSH1 0x0 CODECOPY PUSH1 0x0 RETURN INVALID PUSH1 0x80 PUSH1 0x40 MSTORE PUSH1 0x0 DUP1 REVERT INVALID LOG2 PUSH5 0x6970667358 0x22 SLT KECCAK256 0x2F 0xF9 MOD SWAP2 PUSH12 0x2D17C15D00FCEBB48F75CCA4 LOG3 CALLVALUE CALLDATASIZE SHL CALLVALUE LOG4 0x5E 0xC KECCAK256 0xBE 0xAD SMOD SMOD SLT JUMPI PUSH5 0x736F6C6343 STOP ADDMOD SMOD STOP CALLER LOG2 PUSH5 0x6970667358 0x22 SLT KECCAK256 PUSH4 0x90892ABE PUSH18 0xF8A4E74B318647731BB84A5F3A37D23A2C22 SWAP14 SWAP15 PUSH5 0xCCBCA7BEA0 PUSH5 0x736F6C6343 STOP ADDMOD SMOD STOP CALLER "
		},
		"gasEstimates": {
			"creation": {
				"codeDepositCost": "658800",
				"executionCost": "22795",
				"totalCost": "681595"
			},
			"external": {
				"call(uint256)": "infinite"
			},
			"internal": {
				"addressto(address,uint256)": "infinite"
			}
		},
		"methodIdentifiers": {
			"call(uint256)": "2b096926"
		}
	},
	"abi": [
		{
			"inputs": [
				{
					"internalType": "uint256",
					"name": "times",
					"type": "uint256"
				}
			],
			"name": "call",
			"outputs": [],
			"stateMutability": "nonpayable",
			"type": "function"
		}
	]
}